{
    "_format": "hh-sol-artifact-1",
    "contractName": "GPSLogistics",
    "sourceName": "contracts/GPSLogistics.sol",
    "abi": [
        {
            "inputs": [],
            "stateMutability": "nonpayable",
            "type": "constructor"
        },
        {
            "inputs": [
                {
                    "internalType": "address",
                    "name": "owner",
                    "type": "address"
                }
            ],
            "name": "OwnableInvalidOwner",
            "type": "error"
        },
        {
            "inputs": [
                {
                    "internalType": "address",
                    "name": "account",
                    "type": "address"
                }
            ],
            "name": "OwnableUnauthorizedAccount",
            "type": "error"
        },
        {
            "anonymous": false,
            "inputs": [
                {
                    "indexed": true,
                    "internalType": "address",
                    "name": "owner",
                    "type": "address"
                },
                {
                    "indexed": false,
                    "internalType": "uint256",
                    "name": "assetId",
                    "type": "uint256"
                },
                {
                    "indexed": false,
                    "internalType": "uint256",
                    "name": "timestamp",
                    "type": "uint256"
                },
                {
                    "indexed": false,
                    "internalType": "bytes32",
                    "name": "hashedData",
                    "type": "bytes32"
                }
            ],
            "name": "GPSUpdated",
            "type": "event"
        },
        {
            "anonymous": false,
            "inputs": [
                {
                    "indexed": true,
                    "internalType": "address",
                    "name": "previousOwner",
                    "type": "address"
                },
                {
                    "indexed": true,
                    "internalType": "address",
                    "name": "newOwner",
                    "type": "address"
                }
            ],
            "name": "OwnershipTransferred",
            "type": "event"
        },
        {
            "inputs": [
                {
                    "internalType": "address",
                    "name": "",
                    "type": "address"
                },
                {
                    "internalType": "uint256",
                    "name": "",
                    "type": "uint256"
                }
            ],
            "name": "assets",
            "outputs": [
                {
                    "internalType": "string",
                    "name": "assetType",
                    "type": "string"
                },
                {
                    "internalType": "bytes32",
                    "name": "lastStoredHash",
                    "type": "bytes32"
                },
                {
                    "internalType": "uint256",
                    "name": "lastUpdated",
                    "type": "uint256"
                }
            ],
            "stateMutability": "view",
            "type": "function"
        },
        {
            "inputs": [
                {
                    "internalType": "uint256",
                    "name": "assetId",
                    "type": "uint256"
                }
            ],
            "name": "getLastGPSData",
            "outputs": [
                {
                    "internalType": "uint256",
                    "name": "timestamp",
                    "type": "uint256"
                },
                {
                    "internalType": "bytes32",
                    "name": "dataHash",
                    "type": "bytes32"
                }
            ],
            "stateMutability": "view",
            "type": "function"
        },
        {
            "inputs": [],
            "name": "owner",
            "outputs": [
                {
                    "internalType": "address",
                    "name": "",
                    "type": "address"
                }
            ],
            "stateMutability": "view",
            "type": "function"
        },
        {
            "inputs": [
                {
                    "internalType": "uint256",
                    "name": "assetId",
                    "type": "uint256"
                },
                {
                    "internalType": "string",
                    "name": "assetType",
                    "type": "string"
                }
            ],
            "name": "registerAsset",
            "outputs": [],
            "stateMutability": "nonpayable",
            "type": "function"
        },
        {
            "inputs": [],
            "name": "renounceOwnership",
            "outputs": [],
            "stateMutability": "nonpayable",
            "type": "function"
        },
        {
            "inputs": [
                {
                    "internalType": "uint256",
                    "name": "assetId",
                    "type": "uint256"
                },
                {
                    "internalType": "bytes32",
                    "name": "hashedData",
                    "type": "bytes32"
                }
            ],
            "name": "storeGPSData",
            "outputs": [],
            "stateMutability": "nonpayable",
            "type": "function"
        },
        {
            "inputs": [
                {
                    "internalType": "address",
                    "name": "newOwner",
                    "type": "address"
                }
            ],
            "name": "transferOwnership",
            "outputs": [],
            "stateMutability": "nonpayable",
            "type": "function"
        }
    ],
    "bytecode": "0x608060405234801561001057600080fd5b5033600073ffffffffffffffffffffffffffffffffffffffff168173ffffffffffffffffffffffffffffffffffffffff16036100845760006040517f1e4fbdf700000000000000000000000000000000000000000000000000000000815260040161007b919061019e565b60405180910390fd5b6100938161009960201b60201c565b506101b9565b60008060009054906101000a900473ffffffffffffffffffffffffffffffffffffffff169050816000806101000a81548173ffffffffffffffffffffffffffffffffffffffff021916908373ffffffffffffffffffffffffffffffffffffffff1602179055508173ffffffffffffffffffffffffffffffffffffffff168173ffffffffffffffffffffffffffffffffffffffff167f8be0079c531659141344cd1fd0a4f28419497f9722a3daafe3b4186f6b6457e060405160405180910390a35050565b600073ffffffffffffffffffffffffffffffffffffffff82169050919050565b60006101888261015d565b9050919050565b6101988161017d565b82525050565b60006020820190506101b3600083018461018f565b92915050565b611146806101c86000396000f3fe608060405234801561001057600080fd5b506004361061007d5760003560e01c80638c2dc67d1161005b5780638c2dc67d146100da5780638da5cb5b146100f6578063a2e03f7a14610114578063f2fde38b146101455761007d565b806304a8f3bc1461008257806351eb27c01461009e578063715018a6146100d0575b600080fd5b61009c600480360381019061009791906108af565b610161565b005b6100b860048036038101906100b3919061094d565b610309565b6040516100c793929190610a3b565b60405180910390f35b6100d86103c8565b005b6100f460048036038101906100ef9190610bae565b6103dc565b005b6100fe6104e3565b60405161010b9190610c19565b60405180910390f35b61012e60048036038101906101299190610c34565b61050c565b60405161013c929190610c61565b60405180910390f35b61015f600480360381019061015a9190610c8a565b610656565b005b6000600160003373ffffffffffffffffffffffffffffffffffffffff1673ffffffffffffffffffffffffffffffffffffffff168152602001908152602001600020600084815260200190815260200160002060000180546101c190610ce6565b905011610203576040517f08c379a00000000000000000000000000000000000000000000000000000000081526004016101fa90610d63565b60405180910390fd5b80600160003373ffffffffffffffffffffffffffffffffffffffff1673ffffffffffffffffffffffffffffffffffffffff16815260200190815260200160002060008481526020019081526020016000206001018190555042600160003373ffffffffffffffffffffffffffffffffffffffff1673ffffffffffffffffffffffffffffffffffffffff1681526020019081526020016000206000848152602001908152602001600020600201819055503373ffffffffffffffffffffffffffffffffffffffff167f299793a18029e39da3df2b28705d09200fc248c9c372f32430bf610ec6405aba8342846040516102fd93929190610d83565b60405180910390a25050565b60016020528160005260406000206020528060005260406000206000915091505080600001805461033990610ce6565b80601f016020809104026020016040519081016040528092919081815260200182805461036590610ce6565b80156103b25780601f10610387576101008083540402835291602001916103b2565b820191906000526020600020905b81548152906001019060200180831161039557829003601f168201915b5050505050908060010154908060020154905083565b6103d06106dc565b6103da6000610763565b565b6000600160003373ffffffffffffffffffffffffffffffffffffffff1673ffffffffffffffffffffffffffffffffffffffff1681526020019081526020016000206000848152602001908152602001600020600001805461043c90610ce6565b90501461047e576040517f08c379a000000000000000000000000000000000000000000000000000000000815260040161047590610e06565b60405180910390fd5b80600160003373ffffffffffffffffffffffffffffffffffffffff1673ffffffffffffffffffffffffffffffffffffffff168152602001908152602001600020600084815260200190815260200160002060000190816104de9190610fd2565b505050565b60008060009054906101000a900473ffffffffffffffffffffffffffffffffffffffff16905090565b6000806000600160003373ffffffffffffffffffffffffffffffffffffffff1673ffffffffffffffffffffffffffffffffffffffff168152602001908152602001600020600085815260200190815260200160002060020154116105a5576040517f08c379a000000000000000000000000000000000000000000000000000000000815260040161059c906110f0565b60405180910390fd5b600160003373ffffffffffffffffffffffffffffffffffffffff1673ffffffffffffffffffffffffffffffffffffffff168152602001908152602001600020600084815260200190815260200160002060020154600160003373ffffffffffffffffffffffffffffffffffffffff1673ffffffffffffffffffffffffffffffffffffffff16815260200190815260200160002060008581526020019081526020016000206001015491509150915091565b61065e6106dc565b600073ffffffffffffffffffffffffffffffffffffffff168173ffffffffffffffffffffffffffffffffffffffff16036106d05760006040517f1e4fbdf70000000000000000000000000000000000000000000000000000000081526004016106c79190610c19565b60405180910390fd5b6106d981610763565b50565b6106e4610827565b73ffffffffffffffffffffffffffffffffffffffff166107026104e3565b73ffffffffffffffffffffffffffffffffffffffff161461076157610725610827565b6040517f118cdaa70000000000000000000000000000000000000000000000000000000081526004016107589190610c19565b60405180910390fd5b565b60008060009054906101000a900473ffffffffffffffffffffffffffffffffffffffff169050816000806101000a81548173ffffffffffffffffffffffffffffffffffffffff021916908373ffffffffffffffffffffffffffffffffffffffff1602179055508173ffffffffffffffffffffffffffffffffffffffff168173ffffffffffffffffffffffffffffffffffffffff167f8be0079c531659141344cd1fd0a4f28419497f9722a3daafe3b4186f6b6457e060405160405180910390a35050565b600033905090565b6000604051905090565b600080fd5b600080fd5b6000819050919050565b61085681610843565b811461086157600080fd5b50565b6000813590506108738161084d565b92915050565b6000819050919050565b61088c81610879565b811461089757600080fd5b50565b6000813590506108a981610883565b92915050565b600080604083850312156108c6576108c5610839565b5b60006108d485828601610864565b92505060206108e58582860161089a565b9150509250929050565b600073ffffffffffffffffffffffffffffffffffffffff82169050919050565b600061091a826108ef565b9050919050565b61092a8161090f565b811461093557600080fd5b50565b60008135905061094781610921565b92915050565b6000806040838503121561096457610963610839565b5b600061097285828601610938565b925050602061098385828601610864565b9150509250929050565b600081519050919050565b600082825260208201905092915050565b60005b838110156109c75780820151818401526020810190506109ac565b60008484015250505050565b6000601f19601f8301169050919050565b60006109ef8261098d565b6109f98185610998565b9350610a098185602086016109a9565b610a12816109d3565b840191505092915050565b610a2681610879565b82525050565b610a3581610843565b82525050565b60006060820190508181036000830152610a5581866109e4565b9050610a646020830185610a1d565b610a716040830184610a2c565b949350505050565b600080fd5b600080fd5b7f4e487b7100000000000000000000000000000000000000000000000000000000600052604160045260246000fd5b610abb826109d3565b810181811067ffffffffffffffff82111715610ada57610ad9610a83565b5b80604052505050565b6000610aed61082f565b9050610af98282610ab2565b919050565b600067ffffffffffffffff821115610b1957610b18610a83565b5b610b22826109d3565b9050602081019050919050565b82818337600083830152505050565b6000610b51610b4c84610afe565b610ae3565b905082815260208101848484011115610b6d57610b6c610a7e565b5b610b78848285610b2f565b509392505050565b600082601f830112610b9557610b94610a79565b5b8135610ba5848260208601610b3e565b91505092915050565b60008060408385031215610bc557610bc4610839565b5b6000610bd385828601610864565b925050602083013567ffffffffffffffff811115610bf457610bf361083e565b5b610c0085828601610b80565b9150509250929050565b610c138161090f565b82525050565b6000602082019050610c2e6000830184610c0a565b92915050565b600060208284031215610c4a57610c49610839565b5b6000610c5884828501610864565b91505092915050565b6000604082019050610c766000830185610a2c565b610c836020830184610a1d565b9392505050565b600060208284031215610ca057610c9f610839565b5b6000610cae84828501610938565b91505092915050565b7f4e487b7100000000000000000000000000000000000000000000000000000000600052602260045260246000fd5b60006002820490506001821680610cfe57607f821691505b602082108103610d1157610d10610cb7565b5b50919050565b7f4173736574206e6f742072656769737465726564000000000000000000000000600082015250565b6000610d4d601483610998565b9150610d5882610d17565b602082019050919050565b60006020820190508181036000830152610d7c81610d40565b9050919050565b6000606082019050610d986000830186610a2c565b610da56020830185610a2c565b610db26040830184610a1d565b949350505050565b7f417373657420616c726561647920726567697374657265640000000000000000600082015250565b6000610df0601883610998565b9150610dfb82610dba565b602082019050919050565b60006020820190508181036000830152610e1f81610de3565b9050919050565b60008190508160005260206000209050919050565b60006020601f8301049050919050565b600082821b905092915050565b600060088302610e887fffffffffffffffffffffffffffffffffffffffffffffffffffffffffffffffff82610e4b565b610e928683610e4b565b95508019841693508086168417925050509392505050565b6000819050919050565b6000610ecf610eca610ec584610843565b610eaa565b610843565b9050919050565b6000819050919050565b610ee983610eb4565b610efd610ef582610ed6565b848454610e58565b825550505050565b600090565b610f12610f05565b610f1d818484610ee0565b505050565b5b81811015610f4157610f36600082610f0a565b600181019050610f23565b5050565b601f821115610f8657610f5781610e26565b610f6084610e3b565b81016020851015610f6f578190505b610f83610f7b85610e3b565b830182610f22565b50505b505050565b600082821c905092915050565b6000610fa960001984600802610f8b565b1980831691505092915050565b6000610fc28383610f98565b9150826002028217905092915050565b610fdb8261098d565b67ffffffffffffffff811115610ff457610ff3610a83565b5b610ffe8254610ce6565b611009828285610f45565b600060209050601f83116001811461103c576000841561102a578287015190505b6110348582610fb6565b86555061109c565b601f19841661104a86610e26565b60005b828110156110725784890151825560018201915060208501945060208101905061104d565b8683101561108f578489015161108b601f891682610f98565b8355505b6001600288020188555050505b505050505050565b7f4e6f206461746120617661696c61626c65000000000000000000000000000000600082015250565b60006110da601183610998565b91506110e5826110a4565b602082019050919050565b60006020820190508181036000830152611109816110cd565b905091905056fea2646970667358221220815288fa6684943373dfa48d5f46483dfd556a2100393f85fe80889b99a72a2d64736f6c634300081c0033",
    "linkReferences": {},
    "deployedLinkReferences": {}
}